:100000000DC095C094C093C092C091C090C08FC0E5
:100010008EC08DC0006000700001380011241FBE2A
:10002000CFE9CDBFE4E1F0E040E017C0B591A59184
:1000300035912591059107FD0CC095918591EF01B2
:10004000F92FE82F05900D92A217B307D9F7FE01FB
:1000500004C01D92A217B307E1F7EB31F40731F7A3
:0800600039D05EC0F894FFCF17
:10006800CF93DF93CDB7DD27C051CDBF80E1E0E668
:10007800F0E0DE01119601900D928A95E1F788B3C0
:100088008E7F88BB20E01BC0E22FF0E0EE0FFF1F41
:1000980081E090E08C0F9D1FE80FF91F808191810E
:1000A80007C0EBE2F1E03197F1F700C000000197DB
:1000B8000097B9F798B381E0892788BB2F5F28306C
:0C00C80018F3C05FCDBFDF91CF91089509
:1000D40087B3816087BB2FEB84ED91E02150804092
:1000E4009040E1F700C0000088B3816088BB2FE333
:1000F4008EE795E0215080409040E1F700C0000079
:1001040088B38E7F88BBAEDF2FEF8EE994E2215057
:0C01140080409040E1F700C00000F5CFF3
:0E012000EC0107D005D0CE0105D0CE0104D0F1
:02012E0068CF98
:02013000089530
:0201320008952E
:0201340008952C
:0201360096DF52
:10013800DC05F401F401F401DC05F401F401F40137
:00000001FF
