:100000000CC0E9C09EC0E7C0E6C0E5C0E4C0E3C0E4
:10001000E2C0E1C000600064800011241FBECFE98F
:10002000CDBFE4E1F0E040E017C0B591A591359176
:100030002591059107FD0CC095918591EF01F92F50
:10004000E82F05900D92A217B307D9F7FE0104C05F
:100050001D92A217B307E1F7E931F40731F703D096
:06006000B3C0F894FFCFCD
:1000660087B3896087BB88B3806188BB85B38261AB
:1000760085BB8BB780628BBF7894B49B08C088B36E
:10008600896088BBB499FECF88B3867F88BB80D051
:1000960080916300813009F042C087EB9BE00197B5
:1000A600F1F700C000008091600090916100019618
:1000B60090936100809360008639910559F08E35E2
:1000C60021E0920739F0823523E0920719F08A3150
:1000D600944019F488B3896088BB80916000909140
:1000E6006100883C910559F0803921E0920739F08A
:1000F600843823E0920719F08C34944019F488B3BD
:10010600867F88BB80916000909161008C3494401A
:1001160031F4109263001092610010926000809199
:100126006200813009F0B4CF109263001092610032
:0C01360010926000109262002BD0AACF43
:100142001F920F920FB60F9211248F93B1990FC085
:1001520081E080936300109261001092600088B386
:10016200896088BBB19BFECF88B3867F88BBB49B76
:100172000BC088B3896088BBB499FECF88B3867FF1
:1001820088BB81E0809362008F910F900FBE0F9029
:040192001F9018950D
:100196002FEB84ED91E0215080409040E1F700C0C4
:1001A600000088B3816088BB2FE38EE795E021507D
:1001B60080409040E1F700C0000088B38E7F88BB86
:0201C60008959A
:0E01C800EC0107D005D0CE0105D0CE0104D049
:0201D60014CF44
:0201D800089588
:0201DA00089586
:0201DC00089584
:0201DE0041DFFF
:00000001FF
