:100000000CC087C062C085C084C083C082C081C06C
:1000100080C07FC000600061800011241FBECFE956
:10002000CDBFE4E1F0E040E017C0B591A591359176
:100030002591059107FD0CC095918591EF01F92F50
:10004000E82F05900D92A217B307D9F7FE0104C05F
:100050001D92A217B307E1F7E931F40731F703D096
:0600600051C0F894FFCF2F
:1000660087B3896087BB85B3826185BB8BB78062A6
:100076008BBF78942FEB84ED91E021508040904027
:10008600E1F700C0000088B3816088BB2FE38EE7EC
:1000960095E0215080409040E1F700C0000088B311
:1000A6008E7F88BB809160008130E1F703C088B302
:1000B600816088BBC19BFBCF88B38E7F88BB1092C3
:0400C6006000F0CF17
:1000CA001F920F920FB60F9211248F93C19907C0F6
:1000DA0081E08093600088B3886088BB08C0109272
:1000EA00600088B38E7F88BB88B3877F88BB8F9177
:0A00FA000F900FBE0F901F90189595
:0E010400EC0107D005D0CE0105D0CE0104D00D
:0201120076CFA6
:0201140008954C
:0201160008954A
:02011800089548
:02011A00A3DF61
:00000001FF
